{
  "_format": "hh-sol-artifact-1",
  "contractName": "ZadToken",
  "sourceName": "Contracts/ZadToken.sol",
  "abi": [
    {
      "inputs": [],
      "stateMutability": "nonpayable",
      "type": "constructor"
    },
    {
      "anonymous": false,
      "inputs": [
        {
          "indexed": true,
          "internalType": "address",
          "name": "owner",
          "type": "address"
        },
        {
          "indexed": true,
          "internalType": "address",
          "name": "approved",
          "type": "address"
        },
        {
          "indexed": true,
          "internalType": "uint256",
          "name": "tokenId",
          "type": "uint256"
        }
      ],
      "name": "Approval",
      "type": "event"
    },
    {
      "anonymous": false,
      "inputs": [
        {
          "indexed": true,
          "internalType": "address",
          "name": "owner",
          "type": "address"
        },
        {
          "indexed": true,
          "internalType": "address",
          "name": "operator",
          "type": "address"
        },
        {
          "indexed": false,
          "internalType": "bool",
          "name": "approved",
          "type": "bool"
        }
      ],
      "name": "ApprovalForAll",
      "type": "event"
    },
    {
      "anonymous": false,
      "inputs": [
        {
          "indexed": true,
          "internalType": "address",
          "name": "previousOwner",
          "type": "address"
        },
        {
          "indexed": true,
          "internalType": "address",
          "name": "newOwner",
          "type": "address"
        }
      ],
      "name": "OwnershipTransferred",
      "type": "event"
    },
    {
      "anonymous": false,
      "inputs": [
        {
          "indexed": true,
          "internalType": "address",
          "name": "from",
          "type": "address"
        },
        {
          "indexed": true,
          "internalType": "address",
          "name": "to",
          "type": "address"
        },
        {
          "indexed": true,
          "internalType": "uint256",
          "name": "tokenId",
          "type": "uint256"
        }
      ],
      "name": "Transfer",
      "type": "event"
    },
    {
      "inputs": [
        {
          "internalType": "address",
          "name": "to",
          "type": "address"
        },
        {
          "internalType": "uint256",
          "name": "tokenId",
          "type": "uint256"
        }
      ],
      "name": "approve",
      "outputs": [],
      "stateMutability": "nonpayable",
      "type": "function"
    },
    {
      "inputs": [
        {
          "internalType": "address",
          "name": "owner",
          "type": "address"
        }
      ],
      "name": "balanceOf",
      "outputs": [
        {
          "internalType": "uint256",
          "name": "",
          "type": "uint256"
        }
      ],
      "stateMutability": "view",
      "type": "function"
    },
    {
      "inputs": [
        {
          "internalType": "address payable",
          "name": "to",
          "type": "address"
        },
        {
          "internalType": "uint256",
          "name": "val",
          "type": "uint256"
        },
        {
          "internalType": "uint256",
          "name": "tokenID",
          "type": "uint256"
        }
      ],
      "name": "burn",
      "outputs": [],
      "stateMutability": "nonpayable",
      "type": "function"
    },
    {
      "inputs": [
        {
          "internalType": "uint256",
          "name": "tokenId",
          "type": "uint256"
        }
      ],
      "name": "getApproved",
      "outputs": [
        {
          "internalType": "address",
          "name": "",
          "type": "address"
        }
      ],
      "stateMutability": "view",
      "type": "function"
    },
    {
      "inputs": [
        {
          "internalType": "address",
          "name": "owner",
          "type": "address"
        },
        {
          "internalType": "address",
          "name": "operator",
          "type": "address"
        }
      ],
      "name": "isApprovedForAll",
      "outputs": [
        {
          "internalType": "bool",
          "name": "",
          "type": "bool"
        }
      ],
      "stateMutability": "view",
      "type": "function"
    },
    {
      "inputs": [
        {
          "internalType": "address",
          "name": "to",
          "type": "address"
        },
        {
          "internalType": "string",
          "name": "uri",
          "type": "string"
        },
        {
          "internalType": "uint256",
          "name": "baggageValue",
          "type": "uint256"
        }
      ],
      "name": "mintToken",
      "outputs": [
        {
          "internalType": "uint256",
          "name": "",
          "type": "uint256"
        }
      ],
      "stateMutability": "payable",
      "type": "function"
    },
    {
      "inputs": [],
      "name": "name",
      "outputs": [
        {
          "internalType": "string",
          "name": "",
          "type": "string"
        }
      ],
      "stateMutability": "view",
      "type": "function"
    },
    {
      "inputs": [],
      "name": "owner",
      "outputs": [
        {
          "internalType": "address",
          "name": "",
          "type": "address"
        }
      ],
      "stateMutability": "view",
      "type": "function"
    },
    {
      "inputs": [
        {
          "internalType": "uint256",
          "name": "tokenId",
          "type": "uint256"
        }
      ],
      "name": "ownerOf",
      "outputs": [
        {
          "internalType": "address",
          "name": "",
          "type": "address"
        }
      ],
      "stateMutability": "view",
      "type": "function"
    },
    {
      "inputs": [],
      "name": "renounceOwnership",
      "outputs": [],
      "stateMutability": "nonpayable",
      "type": "function"
    },
    {
      "inputs": [
        {
          "internalType": "address",
          "name": "from",
          "type": "address"
        },
        {
          "internalType": "address",
          "name": "to",
          "type": "address"
        },
        {
          "internalType": "uint256",
          "name": "tokenId",
          "type": "uint256"
        }
      ],
      "name": "safeTransferFrom",
      "outputs": [],
      "stateMutability": "nonpayable",
      "type": "function"
    },
    {
      "inputs": [
        {
          "internalType": "address",
          "name": "from",
          "type": "address"
        },
        {
          "internalType": "address",
          "name": "to",
          "type": "address"
        },
        {
          "internalType": "uint256",
          "name": "tokenId",
          "type": "uint256"
        },
        {
          "internalType": "bytes",
          "name": "_data",
          "type": "bytes"
        }
      ],
      "name": "safeTransferFrom",
      "outputs": [],
      "stateMutability": "nonpayable",
      "type": "function"
    },
    {
      "inputs": [
        {
          "internalType": "address",
          "name": "operator",
          "type": "address"
        },
        {
          "internalType": "bool",
          "name": "approved",
          "type": "bool"
        }
      ],
      "name": "setApprovalForAll",
      "outputs": [],
      "stateMutability": "nonpayable",
      "type": "function"
    },
    {
      "inputs": [
        {
          "internalType": "bytes4",
          "name": "interfaceId",
          "type": "bytes4"
        }
      ],
      "name": "supportsInterface",
      "outputs": [
        {
          "internalType": "bool",
          "name": "",
          "type": "bool"
        }
      ],
      "stateMutability": "view",
      "type": "function"
    },
    {
      "inputs": [],
      "name": "symbol",
      "outputs": [
        {
          "internalType": "string",
          "name": "",
          "type": "string"
        }
      ],
      "stateMutability": "view",
      "type": "function"
    },
    {
      "inputs": [
        {
          "internalType": "uint256",
          "name": "index",
          "type": "uint256"
        }
      ],
      "name": "tokenByIndex",
      "outputs": [
        {
          "internalType": "uint256",
          "name": "",
          "type": "uint256"
        }
      ],
      "stateMutability": "view",
      "type": "function"
    },
    {
      "inputs": [
        {
          "internalType": "address",
          "name": "owner",
          "type": "address"
        },
        {
          "internalType": "uint256",
          "name": "index",
          "type": "uint256"
        }
      ],
      "name": "tokenOfOwnerByIndex",
      "outputs": [
        {
          "internalType": "uint256",
          "name": "",
          "type": "uint256"
        }
      ],
      "stateMutability": "view",
      "type": "function"
    },
    {
      "inputs": [
        {
          "internalType": "uint256",
          "name": "tokenID",
          "type": "uint256"
        }
      ],
      "name": "tokenURI",
      "outputs": [
        {
          "internalType": "string",
          "name": "",
          "type": "string"
        }
      ],
      "stateMutability": "view",
      "type": "function"
    },
    {
      "inputs": [],
      "name": "totalSupply",
      "outputs": [
        {
          "internalType": "uint256",
          "name": "",
          "type": "uint256"
        }
      ],
      "stateMutability": "view",
      "type": "function"
    },
    {
      "inputs": [
        {
          "internalType": "address",
          "name": "from",
          "type": "address"
        },
        {
          "internalType": "address",
          "name": "to",
          "type": "address"
        },
        {
          "internalType": "uint256",
          "name": "tokenId",
          "type": "uint256"
        }
      ],
      "name": "transferFrom",
      "outputs": [],
      "stateMutability": "nonpayable",
      "type": "function"
    },
    {
      "inputs": [
        {
          "internalType": "address",
          "name": "newOwner",
          "type": "address"
        }
      ],
      "name": "transferOwnership",
      "outputs": [],
      "stateMutability": "nonpayable",
      "type": "function"
    }
  ],
  "bytecode": "0x60806040523480156200001157600080fd5b506040518060400160405280600881526020017f5a6164546f6b656e0000000000000000000000000000000000000000000000008152506040518060400160405280600381526020017f5a41440000000000000000000000000000000000000000000000000000000000815250816000908051906020019062000096929190620001a6565b508060019080519060200190620000af929190620001a6565b505050620000d2620000c6620000d860201b60201c565b620000e060201b60201c565b620002bb565b600033905090565b6000600b60009054906101000a900473ffffffffffffffffffffffffffffffffffffffff16905081600b60006101000a81548173ffffffffffffffffffffffffffffffffffffffff021916908373ffffffffffffffffffffffffffffffffffffffff1602179055508173ffffffffffffffffffffffffffffffffffffffff168173ffffffffffffffffffffffffffffffffffffffff167f8be0079c531659141344cd1fd0a4f28419497f9722a3daafe3b4186f6b6457e060405160405180910390a35050565b828054620001b49062000256565b90600052602060002090601f016020900481019282620001d8576000855562000224565b82601f10620001f357805160ff191683800117855562000224565b8280016001018555821562000224579182015b828111156200022357825182559160200191906001019062000206565b5b50905062000233919062000237565b5090565b5b808211156200025257600081600090555060010162000238565b5090565b600060028204905060018216806200026f57607f821691505b602082108114156200028657620002856200028c565b5b50919050565b7f4e487b7100000000000000000000000000000000000000000000000000000000600052602260045260246000fd5b613d6280620002cb6000396000f3fe60806040526004361061012a5760003560e01c80636352211e116100ab578063a22cb4651161006f578063a22cb4651461040b578063b88d4fde14610434578063c87b56dd1461045d578063e985e9c51461049a578063f2fde38b146104d7578063f5298aca146105005761012a565b80636352211e1461032457806370a0823114610361578063715018a61461039e5780638da5cb5b146103b557806395d89b41146103e05761012a565b806323b872dd116100f257806323b872dd146102285780632f745c591461025157806342842e0e1461028e5780634f6ccce7146102b7578063611b2fed146102f45761012a565b806301ffc9a71461012f57806306fdde031461016c578063081812fc14610197578063095ea7b3146101d457806318160ddd146101fd575b600080fd5b34801561013b57600080fd5b5061015660048036038101906101519190612b32565b610529565b6040516101639190612fe7565b60405180910390f35b34801561017857600080fd5b5061018161053b565b60405161018e9190613002565b60405180910390f35b3480156101a357600080fd5b506101be60048036038101906101b99190612b84565b6105cd565b6040516101cb9190612f80565b60405180910390f35b3480156101e057600080fd5b506101fb60048036038101906101f69190612af6565b610652565b005b34801561020957600080fd5b5061021261076a565b60405161021f91906132c4565b60405180910390f35b34801561023457600080fd5b5061024f600480360381019061024a9190612989565b610777565b005b34801561025d57600080fd5b5061027860048036038101906102739190612af6565b6107d7565b60405161028591906132c4565b60405180910390f35b34801561029a57600080fd5b506102b560048036038101906102b09190612989565b61087c565b005b3480156102c357600080fd5b506102de60048036038101906102d99190612b84565b61089c565b6040516102eb91906132c4565b60405180910390f35b61030e60048036038101906103099190612a8f565b610933565b60405161031b91906132c4565b60405180910390f35b34801561033057600080fd5b5061034b60048036038101906103469190612b84565b61098e565b6040516103589190612f80565b60405180910390f35b34801561036d57600080fd5b50610388600480360381019061038391906128d5565b610a40565b60405161039591906132c4565b60405180910390f35b3480156103aa57600080fd5b506103b3610af8565b005b3480156103c157600080fd5b506103ca610b80565b6040516103d79190612f80565b60405180910390f35b3480156103ec57600080fd5b506103f5610baa565b6040516104029190613002565b60405180910390f35b34801561041757600080fd5b50610432600480360381019061042d9190612a53565b610c3c565b005b34801561044057600080fd5b5061045b600480360381019061045691906129d8565b610c52565b005b34801561046957600080fd5b50610484600480360381019061047f9190612b84565b610cb4565b6040516104919190613002565b60405180910390f35b3480156104a657600080fd5b506104c160048036038101906104bc919061294d565b610cc6565b6040516104ce9190612fe7565b60405180910390f35b3480156104e357600080fd5b506104fe60048036038101906104f991906128d5565b610d5a565b005b34801561050c57600080fd5b50610527600480360381019061052291906128fe565b610e52565b005b600061053482610f23565b9050919050565b60606000805461054a9061352c565b80601f01602080910402602001604051908101604052809291908181526020018280546105769061352c565b80156105c35780601f10610598576101008083540402835291602001916105c3565b820191906000526020600020905b8154815290600101906020018083116105a657829003601f168201915b5050505050905090565b60006105d882610f9d565b610617576040517f08c379a000000000000000000000000000000000000000000000000000000000815260040161060e906131e4565b60405180910390fd5b6004600083815260200190815260200160002060009054906101000a900473ffffffffffffffffffffffffffffffffffffffff169050919050565b600061065d8261098e565b90508073ffffffffffffffffffffffffffffffffffffffff168373ffffffffffffffffffffffffffffffffffffffff1614156106ce576040517f08c379a00000000000000000000000000000000000000000000000000000000081526004016106c590613244565b60405180910390fd5b8073ffffffffffffffffffffffffffffffffffffffff166106ed611009565b73ffffffffffffffffffffffffffffffffffffffff16148061071c575061071b81610716611009565b610cc6565b5b61075b576040517f08c379a000000000000000000000000000000000000000000000000000000000815260040161075290613124565b60405180910390fd5b6107658383611011565b505050565b6000600880549050905090565b610788610782611009565b826110ca565b6107c7576040517f08c379a00000000000000000000000000000000000000000000000000000000081526004016107be90613264565b60405180910390fd5b6107d28383836111a8565b505050565b60006107e283610a40565b8210610823576040517f08c379a000000000000000000000000000000000000000000000000000000000815260040161081a90613024565b60405180910390fd5b600660008473ffffffffffffffffffffffffffffffffffffffff1673ffffffffffffffffffffffffffffffffffffffff168152602001908152602001600020600083815260200190815260200160002054905092915050565b61089783838360405180602001604052806000815250610c52565b505050565b60006108a661076a565b82106108e7576040517f08c379a00000000000000000000000000000000000000000000000000000000081526004016108de90613284565b60405180910390fd5b60088281548110610921577f4e487b7100000000000000000000000000000000000000000000000000000000600052603260045260246000fd5b90600052602060002001549050919050565b600081341015610978576040517f08c379a000000000000000000000000000000000000000000000000000000000815260040161096f906132a4565b60405180910390fd5b610982848461140f565b600d5490509392505050565b6000806002600084815260200190815260200160002060009054906101000a900473ffffffffffffffffffffffffffffffffffffffff169050600073ffffffffffffffffffffffffffffffffffffffff168173ffffffffffffffffffffffffffffffffffffffff161415610a37576040517f08c379a0000000000000000000000000000000000000000000000000000000008152600401610a2e90613164565b60405180910390fd5b80915050919050565b60008073ffffffffffffffffffffffffffffffffffffffff168273ffffffffffffffffffffffffffffffffffffffff161415610ab1576040517f08c379a0000000000000000000000000000000000000000000000000000000008152600401610aa890613144565b60405180910390fd5b600360008373ffffffffffffffffffffffffffffffffffffffff1673ffffffffffffffffffffffffffffffffffffffff168152602001908152602001600020549050919050565b610b00611009565b73ffffffffffffffffffffffffffffffffffffffff16610b1e610b80565b73ffffffffffffffffffffffffffffffffffffffff1614610b74576040517f08c379a0000000000000000000000000000000000000000000000000000000008152600401610b6b90613204565b60405180910390fd5b610b7e6000611445565b565b6000600b60009054906101000a900473ffffffffffffffffffffffffffffffffffffffff16905090565b606060018054610bb99061352c565b80601f0160208091040260200160405190810160405280929190818152602001828054610be59061352c565b8015610c325780601f10610c0757610100808354040283529160200191610c32565b820191906000526020600020905b815481529060010190602001808311610c1557829003601f168201915b5050505050905090565b610c4e610c47611009565b838361150b565b5050565b610c63610c5d611009565b836110ca565b610ca2576040517f08c379a0000000000000000000000000000000000000000000000000000000008152600401610c9990613264565b60405180910390fd5b610cae84848484611678565b50505050565b6060610cbf826116d4565b9050919050565b6000600560008473ffffffffffffffffffffffffffffffffffffffff1673ffffffffffffffffffffffffffffffffffffffff16815260200190815260200160002060008373ffffffffffffffffffffffffffffffffffffffff1673ffffffffffffffffffffffffffffffffffffffff16815260200190815260200160002060009054906101000a900460ff16905092915050565b610d62611009565b73ffffffffffffffffffffffffffffffffffffffff16610d80610b80565b73ffffffffffffffffffffffffffffffffffffffff1614610dd6576040517f08c379a0000000000000000000000000000000000000000000000000000000008152600401610dcd90613204565b60405180910390fd5b600073ffffffffffffffffffffffffffffffffffffffff168173ffffffffffffffffffffffffffffffffffffffff161415610e46576040517f08c379a0000000000000000000000000000000000000000000000000000000008152600401610e3d90613064565b60405180910390fd5b610e4f81611445565b50565b610e5a611009565b73ffffffffffffffffffffffffffffffffffffffff16610e78610b80565b73ffffffffffffffffffffffffffffffffffffffff1614610ece576040517f08c379a0000000000000000000000000000000000000000000000000000000008152600401610ec590613204565b60405180910390fd5b8273ffffffffffffffffffffffffffffffffffffffff166108fc839081150290604051600060405180830381858888f19350505050158015610f14573d6000803e3d6000fd5b50610f1e81611826565b505050565b60007f780e9d63000000000000000000000000000000000000000000000000000000007bffffffffffffffffffffffffffffffffffffffffffffffffffffffff1916827bffffffffffffffffffffffffffffffffffffffffffffffffffffffff19161480610f965750610f9582611832565b5b9050919050565b60008073ffffffffffffffffffffffffffffffffffffffff166002600084815260200190815260200160002060009054906101000a900473ffffffffffffffffffffffffffffffffffffffff1673ffffffffffffffffffffffffffffffffffffffff1614159050919050565b600033905090565b816004600083815260200190815260200160002060006101000a81548173ffffffffffffffffffffffffffffffffffffffff021916908373ffffffffffffffffffffffffffffffffffffffff160217905550808273ffffffffffffffffffffffffffffffffffffffff166110848361098e565b73ffffffffffffffffffffffffffffffffffffffff167f8c5be1e5ebec7d5bd14f71427d1e84f3dd0314c0f7b2291e5b200ac8c7c3b92560405160405180910390a45050565b60006110d582610f9d565b611114576040517f08c379a000000000000000000000000000000000000000000000000000000000815260040161110b90613104565b60405180910390fd5b600061111f8361098e565b90508073ffffffffffffffffffffffffffffffffffffffff168473ffffffffffffffffffffffffffffffffffffffff16148061116157506111608185610cc6565b5b8061119f57508373ffffffffffffffffffffffffffffffffffffffff16611187846105cd565b73ffffffffffffffffffffffffffffffffffffffff16145b91505092915050565b8273ffffffffffffffffffffffffffffffffffffffff166111c88261098e565b73ffffffffffffffffffffffffffffffffffffffff161461121e576040517f08c379a000000000000000000000000000000000000000000000000000000000815260040161121590613084565b60405180910390fd5b600073ffffffffffffffffffffffffffffffffffffffff168273ffffffffffffffffffffffffffffffffffffffff16141561128e576040517f08c379a0000000000000000000000000000000000000000000000000000000008152600401611285906130c4565b60405180910390fd5b611299838383611914565b6112a4600082611011565b6001600360008573ffffffffffffffffffffffffffffffffffffffff1673ffffffffffffffffffffffffffffffffffffffff16815260200190815260200160002060008282546112f49190613430565b925050819055506001600360008473ffffffffffffffffffffffffffffffffffffffff1673ffffffffffffffffffffffffffffffffffffffff168152602001908152602001600020600082825461134b91906133a9565b92505081905550816002600083815260200190815260200160002060006101000a81548173ffffffffffffffffffffffffffffffffffffffff021916908373ffffffffffffffffffffffffffffffffffffffff160217905550808273ffffffffffffffffffffffffffffffffffffffff168473ffffffffffffffffffffffffffffffffffffffff167fddf252ad1be2c89b69c2b068fc378daa952ba7f163c4a11628f55a4df523b3ef60405160405180910390a461140a838383611924565b505050565b611419600c611929565b600d81905550611429600c611937565b61143582600d5461194d565b611441600d548261196b565b5050565b6000600b60009054906101000a900473ffffffffffffffffffffffffffffffffffffffff16905081600b60006101000a81548173ffffffffffffffffffffffffffffffffffffffff021916908373ffffffffffffffffffffffffffffffffffffffff1602179055508173ffffffffffffffffffffffffffffffffffffffff168173ffffffffffffffffffffffffffffffffffffffff167f8be0079c531659141344cd1fd0a4f28419497f9722a3daafe3b4186f6b6457e060405160405180910390a35050565b8173ffffffffffffffffffffffffffffffffffffffff168373ffffffffffffffffffffffffffffffffffffffff16141561157a576040517f08c379a0000000000000000000000000000000000000000000000000000000008152600401611571906130e4565b60405180910390fd5b80600560008573ffffffffffffffffffffffffffffffffffffffff1673ffffffffffffffffffffffffffffffffffffffff16815260200190815260200160002060008473ffffffffffffffffffffffffffffffffffffffff1673ffffffffffffffffffffffffffffffffffffffff16815260200190815260200160002060006101000a81548160ff0219169083151502179055508173ffffffffffffffffffffffffffffffffffffffff168373ffffffffffffffffffffffffffffffffffffffff167f17307eab39ab6107e8899845ad3d59bd9653f200f220920489ca2b5937696c318360405161166b9190612fe7565b60405180910390a3505050565b6116838484846111a8565b61168f848484846119df565b6116ce576040517f08c379a00000000000000000000000000000000000000000000000000000000081526004016116c590613044565b60405180910390fd5b50505050565b60606116df82610f9d565b61171e576040517f08c379a0000000000000000000000000000000000000000000000000000000008152600401611715906131c4565b60405180910390fd5b6000600a6000848152602001908152602001600020805461173e9061352c565b80601f016020809104026020016040519081016040528092919081815260200182805461176a9061352c565b80156117b75780601f1061178c576101008083540402835291602001916117b7565b820191906000526020600020905b81548152906001019060200180831161179a57829003601f168201915b5050505050905060006117c8611b76565b90506000815114156117de578192505050611821565b6000825111156118135780826040516020016117fb929190612f5c565b60405160208183030381529060405292505050611821565b61181c84611b8d565b925050505b919050565b61182f81611c34565b50565b60007f80ac58cd000000000000000000000000000000000000000000000000000000007bffffffffffffffffffffffffffffffffffffffffffffffffffffffff1916827bffffffffffffffffffffffffffffffffffffffffffffffffffffffff191614806118fd57507f5b5e139f000000000000000000000000000000000000000000000000000000007bffffffffffffffffffffffffffffffffffffffffffffffffffffffff1916827bffffffffffffffffffffffffffffffffffffffffffffffffffffffff1916145b8061190d575061190c82611c87565b5b9050919050565b61191f838383611cf1565b505050565b505050565b600081600001549050919050565b6001816000016000828254019250508190555050565b611967828260405180602001604052806000815250611e05565b5050565b61197482610f9d565b6119b3576040517f08c379a00000000000000000000000000000000000000000000000000000000081526004016119aa90613184565b60405180910390fd5b80600a600084815260200190815260200160002090805190602001906119da9291906126a4565b505050565b6000611a008473ffffffffffffffffffffffffffffffffffffffff16611e60565b15611b69578373ffffffffffffffffffffffffffffffffffffffff1663150b7a02611a29611009565b8786866040518563ffffffff1660e01b8152600401611a4b9493929190612f9b565b602060405180830381600087803b158015611a6557600080fd5b505af1925050508015611a9657506040513d601f19601f82011682018060405250810190611a939190612b5b565b60015b611b19573d8060008114611ac6576040519150601f19603f3d011682016040523d82523d6000602084013e611acb565b606091505b50600081511415611b11576040517f08c379a0000000000000000000000000000000000000000000000000000000008152600401611b0890613044565b60405180910390fd5b805181602001fd5b63150b7a0260e01b7bffffffffffffffffffffffffffffffffffffffffffffffffffffffff1916817bffffffffffffffffffffffffffffffffffffffffffffffffffffffff191614915050611b6e565b600190505b949350505050565b606060405180602001604052806000815250905090565b6060611b9882610f9d565b611bd7576040517f08c379a0000000000000000000000000000000000000000000000000000000008152600401611bce90613224565b60405180910390fd5b6000611be1611b76565b90506000815111611c015760405180602001604052806000815250611c2c565b80611c0b84611e83565b604051602001611c1c929190612f5c565b6040516020818303038152906040525b915050919050565b611c3d81612030565b6000600a60008381526020019081526020016000208054611c5d9061352c565b905014611c8457600a60008281526020019081526020016000206000611c83919061272a565b5b50565b60007f01ffc9a7000000000000000000000000000000000000000000000000000000007bffffffffffffffffffffffffffffffffffffffffffffffffffffffff1916827bffffffffffffffffffffffffffffffffffffffffffffffffffffffff1916149050919050565b611cfc83838361214d565b600073ffffffffffffffffffffffffffffffffffffffff168373ffffffffffffffffffffffffffffffffffffffff161415611d3f57611d3a81612152565b611d7e565b8173ffffffffffffffffffffffffffffffffffffffff168373ffffffffffffffffffffffffffffffffffffffff1614611d7d57611d7c838261219b565b5b5b600073ffffffffffffffffffffffffffffffffffffffff168273ffffffffffffffffffffffffffffffffffffffff161415611dc157611dbc81612308565b611e00565b8273ffffffffffffffffffffffffffffffffffffffff168273ffffffffffffffffffffffffffffffffffffffff1614611dff57611dfe828261244b565b5b5b505050565b611e0f83836124ca565b611e1c60008484846119df565b611e5b576040517f08c379a0000000000000000000000000000000000000000000000000000000008152600401611e5290613044565b60405180910390fd5b505050565b6000808273ffffffffffffffffffffffffffffffffffffffff163b119050919050565b60606000821415611ecb576040518060400160405280600181526020017f3000000000000000000000000000000000000000000000000000000000000000815250905061202b565b600082905060005b60008214611efd578080611ee69061358f565b915050600a82611ef691906133ff565b9150611ed3565b60008167ffffffffffffffff811115611f3f577f4e487b7100000000000000000000000000000000000000000000000000000000600052604160045260246000fd5b6040519080825280601f01601f191660200182016040528015611f715781602001600182028036833780820191505090505b5090505b6000851461202457600182611f8a9190613430565b9150600a85611f9991906135d8565b6030611fa591906133a9565b60f81b818381518110611fe1577f4e487b7100000000000000000000000000000000000000000000000000000000600052603260045260246000fd5b60200101907effffffffffffffffffffffffffffffffffffffffffffffffffffffffffffff1916908160001a905350600a8561201d91906133ff565b9450611f75565b8093505050505b919050565b600061203b8261098e565b905061204981600084611914565b612054600083611011565b6001600360008373ffffffffffffffffffffffffffffffffffffffff1673ffffffffffffffffffffffffffffffffffffffff16815260200190815260200160002060008282546120a49190613430565b925050819055506002600083815260200190815260200160002060006101000a81549073ffffffffffffffffffffffffffffffffffffffff021916905581600073ffffffffffffffffffffffffffffffffffffffff168273ffffffffffffffffffffffffffffffffffffffff167fddf252ad1be2c89b69c2b068fc378daa952ba7f163c4a11628f55a4df523b3ef60405160405180910390a461214981600084611924565b5050565b505050565b6008805490506009600083815260200190815260200160002081905550600881908060018154018082558091505060019003906000526020600020016000909190919091505550565b600060016121a884610a40565b6121b29190613430565b9050600060076000848152602001908152602001600020549050818114612297576000600660008673ffffffffffffffffffffffffffffffffffffffff1673ffffffffffffffffffffffffffffffffffffffff168152602001908152602001600020600084815260200190815260200160002054905080600660008773ffffffffffffffffffffffffffffffffffffffff1673ffffffffffffffffffffffffffffffffffffffff168152602001908152602001600020600084815260200190815260200160002081905550816007600083815260200190815260200160002081905550505b6007600084815260200190815260200160002060009055600660008573ffffffffffffffffffffffffffffffffffffffff1673ffffffffffffffffffffffffffffffffffffffff16815260200190815260200160002060008381526020019081526020016000206000905550505050565b6000600160088054905061231c9190613430565b9050600060096000848152602001908152602001600020549050600060088381548110612372577f4e487b7100000000000000000000000000000000000000000000000000000000600052603260045260246000fd5b9060005260206000200154905080600883815481106123ba577f4e487b7100000000000000000000000000000000000000000000000000000000600052603260045260246000fd5b90600052602060002001819055508160096000838152602001908152602001600020819055506009600085815260200190815260200160002060009055600880548061242f577f4e487b7100000000000000000000000000000000000000000000000000000000600052603160045260246000fd5b6001900381819060005260206000200160009055905550505050565b600061245683610a40565b905081600660008573ffffffffffffffffffffffffffffffffffffffff1673ffffffffffffffffffffffffffffffffffffffff168152602001908152602001600020600083815260200190815260200160002081905550806007600084815260200190815260200160002081905550505050565b600073ffffffffffffffffffffffffffffffffffffffff168273ffffffffffffffffffffffffffffffffffffffff16141561253a576040517f08c379a0000000000000000000000000000000000000000000000000000000008152600401612531906131a4565b60405180910390fd5b61254381610f9d565b15612583576040517f08c379a000000000000000000000000000000000000000000000000000000000815260040161257a906130a4565b60405180910390fd5b61258f60008383611914565b6001600360008473ffffffffffffffffffffffffffffffffffffffff1673ffffffffffffffffffffffffffffffffffffffff16815260200190815260200160002060008282546125df91906133a9565b92505081905550816002600083815260200190815260200160002060006101000a81548173ffffffffffffffffffffffffffffffffffffffff021916908373ffffffffffffffffffffffffffffffffffffffff160217905550808273ffffffffffffffffffffffffffffffffffffffff16600073ffffffffffffffffffffffffffffffffffffffff167fddf252ad1be2c89b69c2b068fc378daa952ba7f163c4a11628f55a4df523b3ef60405160405180910390a46126a060008383611924565b5050565b8280546126b09061352c565b90600052602060002090601f0160209004810192826126d25760008555612719565b82601f106126eb57805160ff1916838001178555612719565b82800160010185558215612719579182015b828111156127185782518255916020019190600101906126fd565b5b509050612726919061276a565b5090565b5080546127369061352c565b6000825580601f106127485750612767565b601f016020900490600052602060002090810190612766919061276a565b5b50565b5b8082111561278357600081600090555060010161276b565b5090565b600061279a61279584613304565b6132df565b9050828152602081018484840111156127b257600080fd5b6127bd8482856134ea565b509392505050565b60006127d86127d384613335565b6132df565b9050828152602081018484840111156127f057600080fd5b6127fb8482856134ea565b509392505050565b60008135905061281281613cb9565b92915050565b60008135905061282781613cd0565b92915050565b60008135905061283c81613ce7565b92915050565b60008135905061285181613cfe565b92915050565b60008151905061286681613cfe565b92915050565b600082601f83011261287d57600080fd5b813561288d848260208601612787565b91505092915050565b600082601f8301126128a757600080fd5b81356128b78482602086016127c5565b91505092915050565b6000813590506128cf81613d15565b92915050565b6000602082840312156128e757600080fd5b60006128f584828501612803565b91505092915050565b60008060006060848603121561291357600080fd5b600061292186828701612818565b9350506020612932868287016128c0565b9250506040612943868287016128c0565b9150509250925092565b6000806040838503121561296057600080fd5b600061296e85828601612803565b925050602061297f85828601612803565b9150509250929050565b60008060006060848603121561299e57600080fd5b60006129ac86828701612803565b93505060206129bd86828701612803565b92505060406129ce868287016128c0565b9150509250925092565b600080600080608085870312156129ee57600080fd5b60006129fc87828801612803565b9450506020612a0d87828801612803565b9350506040612a1e878288016128c0565b925050606085013567ffffffffffffffff811115612a3b57600080fd5b612a478782880161286c565b91505092959194509250565b60008060408385031215612a6657600080fd5b6000612a7485828601612803565b9250506020612a858582860161282d565b9150509250929050565b600080600060608486031215612aa457600080fd5b6000612ab286828701612803565b935050602084013567ffffffffffffffff811115612acf57600080fd5b612adb86828701612896565b9250506040612aec868287016128c0565b9150509250925092565b60008060408385031215612b0957600080fd5b6000612b1785828601612803565b9250506020612b28858286016128c0565b9150509250929050565b600060208284031215612b4457600080fd5b6000612b5284828501612842565b91505092915050565b600060208284031215612b6d57600080fd5b6000612b7b84828501612857565b91505092915050565b600060208284031215612b9657600080fd5b6000612ba4848285016128c0565b91505092915050565b612bb681613464565b82525050565b612bc581613488565b82525050565b6000612bd682613366565b612be0818561337c565b9350612bf08185602086016134f9565b612bf9816136c5565b840191505092915050565b6000612c0f82613371565b612c19818561338d565b9350612c298185602086016134f9565b612c32816136c5565b840191505092915050565b6000612c4882613371565b612c52818561339e565b9350612c628185602086016134f9565b80840191505092915050565b6000612c7b602b8361338d565b9150612c86826136d6565b604082019050919050565b6000612c9e60328361338d565b9150612ca982613725565b604082019050919050565b6000612cc160268361338d565b9150612ccc82613774565b604082019050919050565b6000612ce460258361338d565b9150612cef826137c3565b604082019050919050565b6000612d07601c8361338d565b9150612d1282613812565b602082019050919050565b6000612d2a60248361338d565b9150612d358261383b565b604082019050919050565b6000612d4d60198361338d565b9150612d588261388a565b602082019050919050565b6000612d70602c8361338d565b9150612d7b826138b3565b604082019050919050565b6000612d9360388361338d565b9150612d9e82613902565b604082019050919050565b6000612db6602a8361338d565b9150612dc182613951565b604082019050919050565b6000612dd960298361338d565b9150612de4826139a0565b604082019050919050565b6000612dfc602e8361338d565b9150612e07826139ef565b604082019050919050565b6000612e1f60208361338d565b9150612e2a82613a3e565b602082019050919050565b6000612e4260318361338d565b9150612e4d82613a67565b604082019050919050565b6000612e65602c8361338d565b9150612e7082613ab6565b604082019050919050565b6000612e8860208361338d565b9150612e9382613b05565b602082019050919050565b6000612eab602f8361338d565b9150612eb682613b2e565b604082019050919050565b6000612ece60218361338d565b9150612ed982613b7d565b604082019050919050565b6000612ef160318361338d565b9150612efc82613bcc565b604082019050919050565b6000612f14602c8361338d565b9150612f1f82613c1b565b604082019050919050565b6000612f3760218361338d565b9150612f4282613c6a565b604082019050919050565b612f56816134e0565b82525050565b6000612f688285612c3d565b9150612f748284612c3d565b91508190509392505050565b6000602082019050612f956000830184612bad565b92915050565b6000608082019050612fb06000830187612bad565b612fbd6020830186612bad565b612fca6040830185612f4d565b8181036060830152612fdc8184612bcb565b905095945050505050565b6000602082019050612ffc6000830184612bbc565b92915050565b6000602082019050818103600083015261301c8184612c04565b905092915050565b6000602082019050818103600083015261303d81612c6e565b9050919050565b6000602082019050818103600083015261305d81612c91565b9050919050565b6000602082019050818103600083015261307d81612cb4565b9050919050565b6000602082019050818103600083015261309d81612cd7565b9050919050565b600060208201905081810360008301526130bd81612cfa565b9050919050565b600060208201905081810360008301526130dd81612d1d565b9050919050565b600060208201905081810360008301526130fd81612d40565b9050919050565b6000602082019050818103600083015261311d81612d63565b9050919050565b6000602082019050818103600083015261313d81612d86565b9050919050565b6000602082019050818103600083015261315d81612da9565b9050919050565b6000602082019050818103600083015261317d81612dcc565b9050919050565b6000602082019050818103600083015261319d81612def565b9050919050565b600060208201905081810360008301526131bd81612e12565b9050919050565b600060208201905081810360008301526131dd81612e35565b9050919050565b600060208201905081810360008301526131fd81612e58565b9050919050565b6000602082019050818103600083015261321d81612e7b565b9050919050565b6000602082019050818103600083015261323d81612e9e565b9050919050565b6000602082019050818103600083015261325d81612ec1565b9050919050565b6000602082019050818103600083015261327d81612ee4565b9050919050565b6000602082019050818103600083015261329d81612f07565b9050919050565b600060208201905081810360008301526132bd81612f2a565b9050919050565b60006020820190506132d96000830184612f4d565b92915050565b60006132e96132fa565b90506132f5828261355e565b919050565b6000604051905090565b600067ffffffffffffffff82111561331f5761331e613696565b5b613328826136c5565b9050602081019050919050565b600067ffffffffffffffff8211156133505761334f613696565b5b613359826136c5565b9050602081019050919050565b600081519050919050565b600081519050919050565b600082825260208201905092915050565b600082825260208201905092915050565b600081905092915050565b60006133b4826134e0565b91506133bf836134e0565b9250827fffffffffffffffffffffffffffffffffffffffffffffffffffffffffffffffff038211156133f4576133f3613609565b5b828201905092915050565b600061340a826134e0565b9150613415836134e0565b92508261342557613424613638565b5b828204905092915050565b600061343b826134e0565b9150613446836134e0565b92508282101561345957613458613609565b5b828203905092915050565b600061346f826134c0565b9050919050565b6000613481826134c0565b9050919050565b60008115159050919050565b60007fffffffff0000000000000000000000000000000000000000000000000000000082169050919050565b600073ffffffffffffffffffffffffffffffffffffffff82169050919050565b6000819050919050565b82818337600083830152505050565b60005b838110156135175780820151818401526020810190506134fc565b83811115613526576000848401525b50505050565b6000600282049050600182168061354457607f821691505b6020821081141561355857613557613667565b5b50919050565b613567826136c5565b810181811067ffffffffffffffff8211171561358657613585613696565b5b80604052505050565b600061359a826134e0565b91507fffffffffffffffffffffffffffffffffffffffffffffffffffffffffffffffff8214156135cd576135cc613609565b5b600182019050919050565b60006135e3826134e0565b91506135ee836134e0565b9250826135fe576135fd613638565b5b828206905092915050565b7f4e487b7100000000000000000000000000000000000000000000000000000000600052601160045260246000fd5b7f4e487b7100000000000000000000000000000000000000000000000000000000600052601260045260246000fd5b7f4e487b7100000000000000000000000000000000000000000000000000000000600052602260045260246000fd5b7f4e487b7100000000000000000000000000000000000000000000000000000000600052604160045260246000fd5b6000601f19601f8301169050919050565b7f455243373231456e756d657261626c653a206f776e657220696e646578206f7560008201527f74206f6620626f756e6473000000000000000000000000000000000000000000602082015250565b7f4552433732313a207472616e7366657220746f206e6f6e20455243373231526560008201527f63656976657220696d706c656d656e7465720000000000000000000000000000602082015250565b7f4f776e61626c653a206e6577206f776e657220697320746865207a65726f206160008201527f6464726573730000000000000000000000000000000000000000000000000000602082015250565b7f4552433732313a207472616e736665722066726f6d20696e636f72726563742060008201527f6f776e6572000000000000000000000000000000000000000000000000000000602082015250565b7f4552433732313a20746f6b656e20616c7265616479206d696e74656400000000600082015250565b7f4552433732313a207472616e7366657220746f20746865207a65726f2061646460008201527f7265737300000000000000000000000000000000000000000000000000000000602082015250565b7f4552433732313a20617070726f766520746f2063616c6c657200000000000000600082015250565b7f4552433732313a206f70657261746f7220717565727920666f72206e6f6e657860008201527f697374656e7420746f6b656e0000000000000000000000000000000000000000602082015250565b7f4552433732313a20617070726f76652063616c6c6572206973206e6f74206f7760008201527f6e6572206e6f7220617070726f76656420666f7220616c6c0000000000000000602082015250565b7f4552433732313a2062616c616e636520717565727920666f7220746865207a6560008201527f726f206164647265737300000000000000000000000000000000000000000000602082015250565b7f4552433732313a206f776e657220717565727920666f72206e6f6e657869737460008201527f656e7420746f6b656e0000000000000000000000000000000000000000000000602082015250565b7f45524337323155524953746f726167653a2055524920736574206f66206e6f6e60008201527f6578697374656e7420746f6b656e000000000000000000000000000000000000602082015250565b7f4552433732313a206d696e7420746f20746865207a65726f2061646472657373600082015250565b7f45524337323155524953746f726167653a2055524920717565727920666f722060008201527f6e6f6e6578697374656e7420746f6b656e000000000000000000000000000000602082015250565b7f4552433732313a20617070726f76656420717565727920666f72206e6f6e657860008201527f697374656e7420746f6b656e0000000000000000000000000000000000000000602082015250565b7f4f776e61626c653a2063616c6c6572206973206e6f7420746865206f776e6572600082015250565b7f4552433732314d657461646174613a2055524920717565727920666f72206e6f60008201527f6e6578697374656e7420746f6b656e0000000000000000000000000000000000602082015250565b7f4552433732313a20617070726f76616c20746f2063757272656e74206f776e6560008201527f7200000000000000000000000000000000000000000000000000000000000000602082015250565b7f4552433732313a207472616e736665722063616c6c6572206973206e6f74206f60008201527f776e6572206e6f7220617070726f766564000000000000000000000000000000602082015250565b7f455243373231456e756d657261626c653a20676c6f62616c20696e646578206f60008201527f7574206f6620626f756e64730000000000000000000000000000000000000000602082015250565b7f4e6f7420656e6f756768204554482073656e743b20636865636b20707269636560008201527f2100000000000000000000000000000000000000000000000000000000000000602082015250565b613cc281613464565b8114613ccd57600080fd5b50565b613cd981613476565b8114613ce457600080fd5b50565b613cf081613488565b8114613cfb57600080fd5b50565b613d0781613494565b8114613d1257600080fd5b50565b613d1e816134e0565b8114613d2957600080fd5b5056fea2646970667358221220b5d2b5fa7da2dde39c24eee49a5e33ae98d5a4df9577e3cf330a74f0f137f9ac64736f6c63430008040033",
  "linkReferences": {},
  "deployedLinkReferences": {}
}