{
  "_format": "hh-sol-artifact-1",
  "contractName": "Parties",
  "sourceName": "contracts/party.sol",
  "abi": [
    {
      "inputs": [],
      "stateMutability": "nonpayable",
      "type": "constructor"
    },
    {
      "inputs": [
        {
          "internalType": "address",
          "name": "party2",
          "type": "address"
        },
        {
          "internalType": "uint256",
          "name": "baggageWeight",
          "type": "uint256"
        },
        {
          "internalType": "uint128",
          "name": "baggageValue",
          "type": "uint128"
        }
      ],
      "name": "addParty",
      "outputs": [],
      "stateMutability": "payable",
      "type": "function"
    },
    {
      "inputs": [],
      "name": "getContractBalance",
      "outputs": [
        {
          "internalType": "uint256",
          "name": "",
          "type": "uint256"
        }
      ],
      "stateMutability": "view",
      "type": "function"
    },
    {
      "inputs": [
        {
          "internalType": "uint256",
          "name": "txnno",
          "type": "uint256"
        }
      ],
      "name": "getParty",
      "outputs": [
        {
          "internalType": "address",
          "name": "",
          "type": "address"
        },
        {
          "internalType": "address",
          "name": "",
          "type": "address"
        },
        {
          "internalType": "uint256",
          "name": "",
          "type": "uint256"
        },
        {
          "internalType": "uint256",
          "name": "",
          "type": "uint256"
        },
        {
          "internalType": "string",
          "name": "",
          "type": "string"
        },
        {
          "internalType": "uint256",
          "name": "",
          "type": "uint256"
        }
      ],
      "stateMutability": "view",
      "type": "function"
    },
    {
      "inputs": [],
      "name": "owner",
      "outputs": [
        {
          "internalType": "address payable",
          "name": "",
          "type": "address"
        }
      ],
      "stateMutability": "view",
      "type": "function"
    },
    {
      "inputs": [
        {
          "internalType": "address payable",
          "name": "to",
          "type": "address"
        },
        {
          "internalType": "uint256",
          "name": "amount",
          "type": "uint256"
        }
      ],
      "name": "transfer",
      "outputs": [],
      "stateMutability": "nonpayable",
      "type": "function"
    },
    {
      "inputs": [
        {
          "internalType": "uint256",
          "name": "txnno",
          "type": "uint256"
        },
        {
          "internalType": "string",
          "name": "status",
          "type": "string"
        }
      ],
      "name": "updatePartyStatus",
      "outputs": [],
      "stateMutability": "nonpayable",
      "type": "function"
    },
    {
      "inputs": [
        {
          "internalType": "uint256",
          "name": "amount",
          "type": "uint256"
        }
      ],
      "name": "withdraw",
      "outputs": [],
      "stateMutability": "nonpayable",
      "type": "function"
    }
  ],
  "bytecode": "0x608060405234801561001057600080fd5b5033600260006101000a81548173ffffffffffffffffffffffffffffffffffffffff021916908373ffffffffffffffffffffffffffffffffffffffff16021790555061137d806100616000396000f3fe6080604052600436106100705760003560e01c806391bc3f781161004e57806391bc3f78146100f4578063947582181461011d578063a9059cbb1461015f578063d6abf9481461018857610070565b80632e1a7d4d146100755780636f9fb98a1461009e5780638da5cb5b146100c9575b600080fd5b34801561008157600080fd5b5061009c60048036038101906100979190610cd0565b6101a4565b005b3480156100aa57600080fd5b506100b361026a565b6040516100c09190610f3c565b60405180910390f35b3480156100d557600080fd5b506100de6102cc565b6040516100eb9190610eb9565b60405180910390f35b34801561010057600080fd5b5061011b60048036038101906101169190610cf9565b6102f2565b005b34801561012957600080fd5b50610144600480360381019061013f9190610cd0565b610520565b60405161015696959493929190610ed4565b60405180910390f35b34801561016b57600080fd5b5061018660048036038101906101819190610c45565b6107f6565b005b6101a2600480360381019061019d9190610c81565b61089b565b005b600260009054906101000a900473ffffffffffffffffffffffffffffffffffffffff1673ffffffffffffffffffffffffffffffffffffffff163373ffffffffffffffffffffffffffffffffffffffff16146101fe57600080fd5b600260009054906101000a900473ffffffffffffffffffffffffffffffffffffffff1673ffffffffffffffffffffffffffffffffffffffff166108fc829081150290604051600060405180830381858888f19350505050158015610266573d6000803e3d6000fd5b5050565b6000600260009054906101000a900473ffffffffffffffffffffffffffffffffffffffff1673ffffffffffffffffffffffffffffffffffffffff163373ffffffffffffffffffffffffffffffffffffffff16146102c657600080fd5b47905090565b600260009054906101000a900473ffffffffffffffffffffffffffffffffffffffff1681565b600260009054906101000a900473ffffffffffffffffffffffffffffffffffffffff1673ffffffffffffffffffffffffffffffffffffffff163373ffffffffffffffffffffffffffffffffffffffff161461034c57600080fd5b60005b60018054905081101561051b57600060018281548110610398577f4e487b7100000000000000000000000000000000000000000000000000000000600052603260045260246000fd5b9060005260206000209060070201905083816000015414156103ce57828160050190805190602001906103cc929190610ae6565b505b6040516020016103dd90610ea4565b60405160208183030381529060405280519060200120816005016040516020016104079190610e78565b604051602081830303815290604052805190602001201415610478576000600560048360060154610438919061101a565b6104429190610fe9565b90506104728260020160009054906101000a900473ffffffffffffffffffffffffffffffffffffffff16826107f6565b50610507565b60405160200161048790610e8f565b60405160208183030381529060405280519060200120816005016040516020016104b19190610e78565b604051602081830303815290604052805190602001201415610506576000816006015490506105048260010160009054906101000a900473ffffffffffffffffffffffffffffffffffffffff16826107f6565b505b5b50808061051390611183565b91505061034f565b505050565b6000806000806060600080600090505b6001805490508110156107a057600060018281548110610579577f4e487b7100000000000000000000000000000000000000000000000000000000600052603260045260246000fd5b90600052602060002090600702016040518060e0016040529081600082015481526020016001820160009054906101000a900473ffffffffffffffffffffffffffffffffffffffff1673ffffffffffffffffffffffffffffffffffffffff1673ffffffffffffffffffffffffffffffffffffffff1681526020016002820160009054906101000a900473ffffffffffffffffffffffffffffffffffffffff1673ffffffffffffffffffffffffffffffffffffffff1673ffffffffffffffffffffffffffffffffffffffff168152602001600382015481526020016004820160009054906101000a90046fffffffffffffffffffffffffffffffff166fffffffffffffffffffffffffffffffff166fffffffffffffffffffffffffffffffff1681526020016005820180546106ac90611120565b80601f01602080910402602001604051908101604052809291908181526020018280546106d890611120565b80156107255780601f106106fa57610100808354040283529160200191610725565b820191906000526020600020905b81548152906001019060200180831161070857829003601f168201915b505050505081526020016006820154815250509050888160000151141561078c5780602001518160400151826060015183608001518460a001518560c00151826fffffffffffffffffffffffffffffffff16925097509750975097509750975050506107ed565b50808061079890611183565b915050610530565b60008060008060006040518060400160405280600981526020017f4e6f7420666f756e64000000000000000000000000000000000000000000000081525090965096509650965096509650505b91939550919395565b600260009054906101000a900473ffffffffffffffffffffffffffffffffffffffff1673ffffffffffffffffffffffffffffffffffffffff163373ffffffffffffffffffffffffffffffffffffffff161461085057600080fd5b8173ffffffffffffffffffffffffffffffffffffffff166108fc829081150290604051600060405180830381858888f19350505050158015610896573d6000803e3d6000fd5b505050565b60006108a76000610ac2565b90506108b36000610ad0565b6000647dba821800846108c6919061101a565b90508034146108d457600080fd5b600033905060006040518060e001604052808581526020018373ffffffffffffffffffffffffffffffffffffffff1681526020018873ffffffffffffffffffffffffffffffffffffffff168152602001878152602001866fffffffffffffffffffffffffffffffff1681526020016040518060400160405280600781526020017f50656e64696e6700000000000000000000000000000000000000000000000000815250815260200184815250905060018190806001815401808255809150506001900390600052602060002090600702016000909190919091506000820151816000015560208201518160010160006101000a81548173ffffffffffffffffffffffffffffffffffffffff021916908373ffffffffffffffffffffffffffffffffffffffff16021790555060408201518160020160006101000a81548173ffffffffffffffffffffffffffffffffffffffff021916908373ffffffffffffffffffffffffffffffffffffffff1602179055506060820151816003015560808201518160040160006101000a8154816fffffffffffffffffffffffffffffffff02191690836fffffffffffffffffffffffffffffffff16021790555060a0820151816005019080519060200190610aac929190610ae6565b5060c08201518160060155505050505050505050565b600081600001549050919050565b6001816000016000828254019250508190555050565b828054610af290611120565b90600052602060002090601f016020900481019282610b145760008555610b5b565b82601f10610b2d57805160ff1916838001178555610b5b565b82800160010185558215610b5b579182015b82811115610b5a578251825591602001919060010190610b3f565b5b509050610b689190610b6c565b5090565b5b80821115610b85576000816000905550600101610b6d565b5090565b6000610b9c610b9784610f7c565b610f57565b905082815260208101848484011115610bb457600080fd5b610bbf8482856110de565b509392505050565b600081359050610bd6816112eb565b92915050565b600081359050610beb81611302565b92915050565b600082601f830112610c0257600080fd5b8135610c12848260208601610b89565b91505092915050565b600081359050610c2a81611319565b92915050565b600081359050610c3f81611330565b92915050565b60008060408385031215610c5857600080fd5b6000610c6685828601610bdc565b9250506020610c7785828601610c30565b9150509250929050565b600080600060608486031215610c9657600080fd5b6000610ca486828701610bc7565b9350506020610cb586828701610c30565b9250506040610cc686828701610c1b565b9150509250925092565b600060208284031215610ce257600080fd5b6000610cf084828501610c30565b91505092915050565b60008060408385031215610d0c57600080fd5b6000610d1a85828601610c30565b925050602083013567ffffffffffffffff811115610d3757600080fd5b610d4385828601610bf1565b9150509250929050565b610d5681611086565b82525050565b610d6581611074565b82525050565b6000610d7682610fc2565b610d808185610fcd565b9350610d908185602086016110ed565b610d9981611288565b840191505092915050565b60008154610db181611120565b610dbb8186610fde565b94506001821660008114610dd65760018114610de757610e1a565b60ff19831686528186019350610e1a565b610df085610fad565b60005b83811015610e1257815481890152600182019150602081019050610df3565b838801955050505b50505092915050565b6000610e30600683610fde565b9150610e3b82611299565b600682019050919050565b6000610e53600783610fde565b9150610e5e826112c2565b600782019050919050565b610e72816110d4565b82525050565b6000610e848284610da4565b915081905092915050565b6000610e9a82610e23565b9150819050919050565b6000610eaf82610e46565b9150819050919050565b6000602082019050610ece6000830184610d4d565b92915050565b600060c082019050610ee96000830189610d5c565b610ef66020830188610d5c565b610f036040830187610e69565b610f106060830186610e69565b8181036080830152610f228185610d6b565b9050610f3160a0830184610e69565b979650505050505050565b6000602082019050610f516000830184610e69565b92915050565b6000610f61610f72565b9050610f6d8282611152565b919050565b6000604051905090565b600067ffffffffffffffff821115610f9757610f96611259565b5b610fa082611288565b9050602081019050919050565b60008190508160005260206000209050919050565b600081519050919050565b600082825260208201905092915050565b600081905092915050565b6000610ff4826110d4565b9150610fff836110d4565b92508261100f5761100e6111fb565b5b828204905092915050565b6000611025826110d4565b9150611030836110d4565b9250817fffffffffffffffffffffffffffffffffffffffffffffffffffffffffffffffff0483118215151615611069576110686111cc565b5b828202905092915050565b600061107f826110b4565b9050919050565b6000611091826110b4565b9050919050565b60006fffffffffffffffffffffffffffffffff82169050919050565b600073ffffffffffffffffffffffffffffffffffffffff82169050919050565b6000819050919050565b82818337600083830152505050565b60005b8381101561110b5780820151818401526020810190506110f0565b8381111561111a576000848401525b50505050565b6000600282049050600182168061113857607f821691505b6020821081141561114c5761114b61122a565b5b50919050565b61115b82611288565b810181811067ffffffffffffffff8211171561117a57611179611259565b5b80604052505050565b600061118e826110d4565b91507fffffffffffffffffffffffffffffffffffffffffffffffffffffffffffffffff8214156111c1576111c06111cc565b5b600182019050919050565b7f4e487b7100000000000000000000000000000000000000000000000000000000600052601160045260246000fd5b7f4e487b7100000000000000000000000000000000000000000000000000000000600052601260045260246000fd5b7f4e487b7100000000000000000000000000000000000000000000000000000000600052602260045260246000fd5b7f4e487b7100000000000000000000000000000000000000000000000000000000600052604160045260246000fd5b6000601f19601f8301169050919050565b7f4661696c65640000000000000000000000000000000000000000000000000000600082015250565b7f5375636365737300000000000000000000000000000000000000000000000000600082015250565b6112f481611074565b81146112ff57600080fd5b50565b61130b81611086565b811461131657600080fd5b50565b61132281611098565b811461132d57600080fd5b50565b611339816110d4565b811461134457600080fd5b5056fea26469706673582212209fc3bdd0c4cbcc9f9d84e1e9c988fe4fbdd21e5df73d4c6dc9a7f6a10057736e64736f6c63430008030033",
  "linkReferences": {},
  "deployedLinkReferences": {}
}